:100000000C945E000C9486000C9486000C94860080
:100010000C9486000C9486000C9486000C94860048
:100020000C9486000C9486000C9486000C94860038
:100030000C9486000C9486000C9486000C94860028
:100040000C940F040C9486000C94E5060C9417078E
:100050000C9486000C9486000C9486000C94860008
:100060000C9486000C948600000000080002010039
:100070000003040700000000000000000102040863
:100080001020408001020408102001020408102002
:10009000040404040404040402020202020203032E
:1000A0000303030300000000250028002B000000CC
:1000B0000000240027002A003702470711241FBE32
:1000C000CFEFD8E0DEBFCDBF11E0A0E0B1E0EEEBB6
:1000D000F1E102C005900D92A035B107D9F722E0F9
:1000E000A0E5B1E001C01D92A532B207E1F710E032
:1000F000CCEBD0E004C02297FE010E94D908C83B97
:10010000D107C9F70E948B070C94DD080C940000FE
:10011000DC01ED91FC910190F081E02D099426E045
:1001200042E15AE760E070E088E891E00E948306CF
:1001300020E042E060E18AE691E00E942F0369E15D
:1001400071E08AE691E00E94D807809168010E94E0
:10015000E90423E0959587952A95E1F79093670147
:100160008093660180910E010E94E90433E0959529
:1001700087953A95E1F790936301809362018091AE
:100180000C010E94E90443E0959587954A95E1F7B3
:1001900090935F0180935E0180910A010E94E904BF
:1001A00053E0959587955A95E1F790935B0180937D
:1001B0005A01809108010E94E90463E095958795B2
:1001C0006A95E1F79093570180935601809106015B
:1001D0000E94E90473E0959587957A95E1F79093ED
:1001E0005301809352012091660130916701309351
:1001F0006501209364012091620130916301309385
:1002000061012093600120915E0130915F01309384
:100210005D0120935C0120915A0130915B01309384
:100220005901209358012091560130915701309384
:1002300055012093540190935101809350010895EA
:10024000809168010E94E904E3E095958795EA951D
:10025000E1F7909367018093660180910E010E94FF
:10026000E904F3E095958795FA95E1F7909363019A
:100270008093620180910C010E94E904A3E09595AE
:100280008795AA95E1F790935F0180935E01809135
:100290000A010E94E904B3E095958795BA95E1F7C4
:1002A00090935B0180935A01809108010E94E904B8
:1002B00023E0959587952A95E1F7909357018093D0
:1002C0005601809106010E94E90433E095958795D7
:1002D0003A95E1F790935301809352012091660182
:1002E0003091670180916401909165012817390769
:1002F00009F440C041E060E08AE691E00E94FA0221
:1003000068E271E08AE691E00E94D80741E066E089
:100310008AE691E00E94FA0260916601709167019D
:100320004AE050E08AE691E00E9484086AE070E0CA
:1003300080E090E00E947C046EE271E08AE691E049
:100340000E94D807609104017091050188E891E04E
:100350000E948800609102017091030188E891E099
:100360000E948800609166017091670188E891E0C1
:100370000E948800209162013091630180916001A8
:10038000909161012817390709F440C041E060E00D
:100390008AE691E00E94FA0262E371E08AE691E067
:1003A0000E94D80741E066E08AE691E00E94FA02E6
:1003B00060916201709163014AE050E08AE691E049
:1003C0000E9484086AE070E080E090E00E947C0473
:1003D0006EE271E08AE691E00E94D8076091040124
:1003E0007091050188E891E00E9488006091000109
:1003F0007091010188E891E00E948800609162019B
:100400007091630188E891E00E9488008091660104
:1004100090916701909365018093640180916201DE
:1004200090916301909361018093600180915E01DE
:1004300090915F0190935D0180935C0180915A01DE
:1004400090915B01909359018093580180915601DE
:1004500090915701909355018093540180915201DE
:100460009091530190935101809350010895CF9240
:10047000EF920F9342E0C42E53E0E52E04E025E016
:100480004BE06CE08AE691E00E94E3030F91EF906D
:10049000CF900895CF93DF93EC0160E08E810E94AE
:1004A000680581E090E00E94A40461E08E810E94D2
:1004B000680581E090E00E94A40460E08E810E94C3
:1004C000680584E690E0DF91CF910C94A404CF926C
:1004D000DF92EF92FF920F931F93CF93DF937C01F4
:1004E000C0E0D0E0C62ED12C87010C0F1D1F61E0AB
:1004F000F80187810E942F05B6010C2E02C0759568
:1005000067950A94E2F76170F80187810E94680597
:100510002196C430D10541F7C701DF91CF911F91DA
:100520000F91FF90EF90DF90CF900C944A02CF9202
:10053000DF92EF92FF920F931F93CF93DF937C0193
:10054000C0E0D0E0C62ED12C87010C0F1D1F61E04A
:10055000F80187810E942F05B6010C2E02C0759507
:1005600067950A94E2F76170F80187810E94680537
:100570002196C830D10541F7C701DF91CF911F9176
:100580000F91FF90EF90DF90CF900C944A021F9351
:10059000CF93DF93EC01162F642F8C810E946805A6
:1005A0008D818F3F19F060E00E9468058F85612F73
:1005B00084FF06C0CE01DF91CF911F910C9497026A
:1005C00070E084E0759567958A95E1F7CE010E9409
:1005D0006702612FCE01DF91CF911F910C946702CA
:1005E00040E00C94C70261E00E94F00280ED97E0C9
:1005F0000C94A404CF93DF93CDB7DEB728970FB642
:10060000F894DEBF0FBECDBF28E0E1E1F1E0DE01EE
:10061000119601900D922A95E1F7FC01238942176A
:1006200010F04FEF420FFE013196E40FF11DE40F81
:10063000F11D2081260F2068622F28960FB6F894AE
:10064000DEBF0FBECDBFDF91CF910C94F002FC0155
:100650006089262F2460208B6C600C94F002CF936D
:10066000DF93EC01423018F08F8588608F874B8BC9
:100670001C8A222329F0413019F48F8584608F87EA
:1006800080E593EC0E94A40460E08C810E946805E0
:1006900060E08E810E9468058D818F3F19F060E0D7
:1006A0000E9468056F8564FD1DC063E0CE010E9455
:1006B000670284E991E10E94A40463E0CE010E94F4
:1006C000670284E991E10E94A40463E0CE010E94E4
:1006D000670286E990E00E94A40462E0CE010E94D5
:1006E000670216C06062CE010E94F00284E991E1C7
:1006F0000E94A4046F856062CE010E94F00286E928
:1007000090E00E94A4046F856062CE010E94F00216
:100710006F856062CE010E94F00284E0888BCE017A
:100720000E942703CE010E94F30282E0898B66E0DB
:10073000CE01DF91CF910C94F0026F927F928F9255
:10074000AF92CF92EF920F931F93CF93DF93CDB7DA
:10075000DEB73C01162F842F5D854E853F85988935
:10076000F301848325830683E782C086A18682867F
:10077000538744873587968761E00E942F05F301F0
:1007800085818F3F19F061E00E942F0561E0F30140
:1007900086810E942F05112319F0F301178603C0EB
:1007A00080E1F301878720E041E060E1C301DF9150
:1007B000CF911F910F91EF90CF90AF908F907F903E
:1007C0006F900C942F038F92AF92CF92EF920F9372
:1007D000DC0113961C921E921297ECE3F1E0ED936C
:1007E000FC931F921F921F921F928C2CAE2CC02E36
:1007F000E22E042F2FEF462F61E00E949D030F9001
:100800000F900F900F900F91EF90CF90AF908F902F
:10081000089541E00E94C70281E090E008951F9290
:100820000F920FB60F9211242F933F938F939F93A4
:10083000AF93BF938091800190918101A09182013B
:10084000B091830130917F0123E0230F2D3720F4F5
:100850000196A11DB11D05C026E8230F0296A11D1A
:10086000B11D20937F018093800190938101A0931B
:100870008201B09383018091840190918501A091C0
:100880008601B09187010196A11DB11D809384015D
:1008900090938501A0938601B0938701BF91AF919A
:1008A0009F918F913F912F910F900FBE0F901F90AE
:1008B00018953FB7F8948091840190918501A0919B
:1008C0008601B091870126B5A89B05C02F3F19F07E
:1008D0000196A11DB11D3FBF6627782F892F9A2F42
:1008E000620F711D811D911D42E0660F771F881FE9
:1008F000991F4A95D1F70895CF92DF92EF92FF9218
:10090000CF93DF936B017C010E945904EB01C1146A
:10091000D104E104F10489F00E948C080E9459047A
:100920006C1B7D0B683E734090F381E0C81AD108C0
:10093000E108F108C851DC4FEACFDF91CF91FF9079
:10094000EF90DF90CF900895019739F0880F991FAD
:10095000880F991F02970197F1F70895789484B54D
:10096000826084BD84B5816084BD85B5826085BDAB
:1009700085B5816085BDEEE6F0E080818160808391
:10098000E1E8F0E010828081826080838081816074
:100990008083E0E8F0E0808181608083E1EBF0E03B
:1009A000808184608083E0EBF0E0808181608083DF
:1009B000EAE7F0E0808184608083808182608083C8
:1009C0008081816080838081806880831092C100F3
:1009D00008958E3008F08E5087702091100190E4B9
:1009E000299F90011124822B80937C0080917A00B2
:1009F000806480937A0080917A0086FDFCCF80919C
:100A000078002091790090E0922B0895833081F056
:100A100028F4813099F08230A1F008958730A9F050
:100A20008830B9F08430D1F4809180008F7D03C08C
:100A3000809180008F7780938000089584B58F77B0
:100A400002C084B58F7D84BD08958091B0008F77FA
:100A500003C08091B0008F7D8093B0000895CF9344
:100A6000DF9390E0FC01E458FF4F2491FC01E05734
:100A7000FF4F8491882349F190E0880F991FFC0172
:100A8000E255FF4FA591B4918C559F4FFC01C59144
:100A9000D4919FB7611108C0F8948C91209582235E
:100AA0008C93888182230AC0623051F4F8948C912F
:100AB000322F309583238C938881822B888304C0C6
:100AC000F8948C91822B8C939FBFDF91CF910895E6
:100AD0000F931F93CF93DF931F92CDB7DEB7282FCD
:100AE00030E0F901E859FF4F8491F901E458FF4FD4
:100AF0001491F901E057FF4F04910023C9F08823B6
:100B000021F069830E9406056981E02FF0E0EE0F75
:100B1000FF1FEC55FF4FA591B4919FB7F8948C91AE
:100B2000611103C01095812301C0812B8C939FBF5D
:100B30000F90DF91CF911F910F910895FC01818D4E
:100B4000228D90E0805C9F4F821B910960E470E0F1
:100B50000E948D080895FC01918D828D981731F0C7
:100B6000828DE80FF11D858D90E008958FEF9FEF46
:100B70000895FC01918D828D981761F0828DDF01BF
:100B8000A80FB11D5D968C91928D9F5F9F73928F80
:100B900090E008958FEF9FEF08958DE397E0892B04
:100BA00049F080E090E0892B29F00E943D078111F7
:100BB0000C9400000895FC01848DDF01A80FB11D85
:100BC000A35ABF4F2C91848D90E001968F73992783
:100BD000848FA689B7892C93A089B1898C91806470
:100BE0008C93938D848D981306C00288F389E02D31
:100BF00080818F7D80830895CF93DF93EC01888D72
:100C00008823C9F0EA89FB89808185FD05C0A88910
:100C1000B9898C9186FD0FC00FB607FCF5CF808196
:100C200085FFF2CFA889B9898C9185FFEDCFCE01E0
:100C30000E94DB05E7CFDF91CF910895CF92DF923D
:100C4000FF920F931F93CF93DF931F92CDB7DEB721
:100C50006C01DC015B969C915B975C968C915C9738
:100C6000981307C05096ED91FC915197808185FDB6
:100C700032C0F601038D10E00F5F1F4F0F73112775
:100C8000F02EF601848DF81211C00FB607FCF9CFD3
:100C9000D6015096ED91FC915197808185FFF1CF5F
:100CA000C60169830E94DB056981EBCF838DE80F64
:100CB000F11DE35AFF4F6083D6015B960C935B975F
:100CC0005296ED91FC91539780818062808381E000
:100CD00058968C930DC0D6015696ED91FC9157977E
:100CE00060835096ED91FC91519780818064808360
:100CF00081E090E00F90DF91CF911F910F91FF90D5
:100D0000DF90CF900895BF92CF92DF92EF92FF9243
:100D1000CF93DF93EC016A017B01B22EE889F98958
:100D200082E08083411581EE580761057105A1F0CD
:100D300060E079E08DE390E0A70196010E94A108B0
:100D40002150310941095109569547953795279505
:100D5000211580E1380798F0E889F989108260E868
:100D600074E88EE190E0A70196010E94A10821504D
:100D70003109410951095695479537952795EC85D5
:100D8000FD853083EE85FF852083188EEC89FD89F3
:100D9000B082EA89FB89808180618083EA89FB894E
:100DA000808188608083EA89FB8980818068808374
:100DB000EA89FB8980818F7D8083DF91CF91FF90CD
:100DC000EF90DF90CF90BF9008951F920F920FB6D3
:100DD0000F9211242F938F939F93EF93FF93E091A2
:100DE0009801F09199018081E0919E01F0919F011D
:100DF00082FD12C090818091A1018F5F8F7320913D
:100E0000A201821751F0E091A101F0E0E857FE4FF6
:100E1000958F8093A10101C08081FF91EF919F91F7
:100E20008F912F910F900FBE0F901F9018951F92CA
:100E30000F920FB60F9211242F933F934F935F930E
:100E40006F937F938F939F93AF93BF93EF93FF9392
:100E500088E891E00E94DB05FF91EF91BF91AF918F
:100E60009F918F917F916F915F914F913F912F91C2
:100E70000F900FBE0F901F90189588E891E00E9488
:100E80009E0521E0892B09F420E0822F089510921D
:100E90008B0110928A0188EE93E0A0E0B0E080938D
:100EA0008C0190938D01A0938E01B0938F0184E407
:100EB00091E0909389018093880185EC90E0909374
:100EC00095018093940184EC90E090939701809336
:100ED000960180EC90E0909399018093980181ECC9
:100EE00090E090939B0180939A0182EC90E0909324
:100EF0009D0180939C0186EC90E090939F018093EC
:100F00009E011092A1011092A2011092A3011092D1
:100F1000A401089508950E94AE040E948A070E94C9
:100F20008F00CDECD5E00E9420012097E1F30E94D4
:100F3000CD05F9CFCF92DF92EF92FF920F931F93DF
:100F4000CF93DF936C017A01EB01E60EF71E00E010
:100F500010E0CE15DF0561F06991D601ED91FC91AD
:100F60000190F081E02DC6010995080F191FF1CFFE
:100F7000C801DF91CF911F910F91FF90EF90DF900B
:100F8000CF9008956115710581F0DB010D9000206F
:100F9000E9F7AD0141505109461B570BDC01ED91BA
:100FA000FC910280F381E02D099480E090E00895A7
:100FB0000C94C207DC01ED91FC910190F081E02DD1
:100FC00009948F929F92AF92BF92CF92DF92EF924D
:100FD000FF920F931F93CF93DF93CDB7DEB7A19707
:100FE0000FB6F894DEBF0FBECDBF7C01C42EE52F37
:100FF000CB01D22E19A221E02D1510F02AE0D22E1D
:101000008E010F5D1F4F8D2C912CA12CB12C6C2DBE
:101010007E2FA50194010E94A1088C2DD29E8019DB
:101020001124015011098A3014F4805D01C0895CDB
:10103000F8018083211531054105510521F0C22EAB
:10104000E32FCA01E4CFB801C7010E94C207A196ED
:101050000FB6F894DEBF0FBECDBFDF91CF911F91C9
:101060000F91FF90EF90DF90CF90BF90AF909F9047
:101070008F900895CF92DF92EF92FF920F931F937C
:10108000CF93DF93EC016A017B012115310579F4DF
:10109000E881F9810190F081E02D642FDF91CF91FB
:1010A0001F910F91FF90EF90DF90CF9009942A301D
:1010B0003105E9F477FF1AC06DE20E94DA078C016E
:1010C00044275527BA014C195D096E097F092AE0AA
:1010D000CE010E94E107800F911FDF91CF911F91F8
:1010E0000F91FF90EF90DF90CF9008952AE0B70125
:1010F000A601CE01DF91CF911F910F91FF90EF904C
:10110000DF90CF900C94E1079A01AB01662757FD61
:101110006095762F0C943A08089597FB072E16F4E5
:10112000009407D077FD09D00E94C30807FC05D0C2
:101130003EF4909581959F4F0895709561957F4FEE
:101140000895A1E21A2EAA1BBB1BFD010DC0AA1F08
:10115000BB1FEE1FFF1FA217B307E407F50720F020
:10116000A21BB30BE40BF50B661F771F881F991F9B
:101170001A9469F760957095809590959B01AC01E4
:10118000BD01CF010895AA1BBB1B51E107C0AA1FD7
:10119000BB1FA617B70710F0A61BB70B881F991F18
:1011A0005A95A9F780959095BC01CD010895EE0F51
:0E11B000FF1F0590F491E02D0994F894FFCFF5
:1011BE0008000700B0000500040003000200010053
:1011CE000100004000140054004A616B6520646108
:1011DE0020736E616B652100706F742031002020CA
:1011EE002000706F742032000000000009049A077E
:1011FE00000000001E069A079E05B905AB05FC050A
:00000001FF
